:020000040800F2
:100000002004002045010008430700083B070008C2
:100010003F0700086D040008590B000800000000AD
:10002000000000000000000000000000750800084B
:1000300011060008000000004507000861090008DB
:100040005F0100085F0100085F0100085F01000810
:100050005F0100085F0100085F0100085F01000800
:100060005F0100085F0100085F0100085F010008F0
:100070005F0100085F0100085F0100085F010008E0
:100080005F0100085F0100085F0100085F010008D0
:100090005F0100085F0100085F0100085F010008C0
:1000A0005F0100085F0100085F0100085F010008B0
:1000B0005F0100085F0100085F0100085F010008A0
:1000C0005F0100085F0100085F0100085F01000890
:1000D0005F0100085F0100085F0100085F01000880
:1000E0005F0100085F0100085F0100085F01000870
:1000F0005F0100085F0100085F0100085F01000860
:100100005F0100085F0100085F0100085F0100084F
:100110005F0100085F0100085F0100085F0100083F
:100120005F0100085F0100085F0100085F0100082F
:10013000DFF80CD000F02EF800480047050F00084B
:10014000200400200648804706480047FEE7FEE7F7
:10015000FEE7FEE7FEE7FEE7FEE7FEE7FEE7FEE777
:10016000650900083101000830B50B460146002042
:100170002022012409E021FA02F59D4205D303FA69
:1001800002F5491B04FA02F52844151EA2F10102EA
:10019000F1DC30BD064C074D06E0E06840F001039D
:1001A00094E8070098471034AC42F6D3FFF7C4FF39
:1001B000A80F0008C80F000821B1826842F00102B0
:1001C000826003E0826822F001028260704721B100
:1001D000826842F48072826003E0826822F4807256
:1001E00082607047014600208A6802F004020AB16A
:1001F000012000E000207047014600208A6802F0DC
:1002000008020AB1012000E00020704730B5024624
:100210000020002350680F4C20400D790C6844EA00
:1002200005242043506090680B4C2040D1E90254D3
:100230002C434D7944EA450420439060D06A20F471
:1002400070000C7C641EE4B2234340EA0350D06289
:1002500030BD0000FFFEF0FFFDF7F1FFF0B50446F2
:100260000D4600200021092D11DDE068A5F10A06E8
:1002700006EB4607072606FA07F18843A5F10A06AA
:1002800006EB460603FA06F10843E0600CE020693D
:1002900005EB4507072606FA07F1884305EB4506F7
:1002A00003FA06F108432061072A0FDA606B561E35
:1002B00006EB86071F2606FA07F18843561E06EB53
:1002C000860605FA06F10843606322E00D2A0FDA7C
:1002D000206BD61F06EB86071F2606FA07F1884318
:1002E000D61F06EB860605FA06F10843206310E0E8
:1002F000E06AA2F10D0606EB86071F2606FA07F153
:100300008843A2F10D0606EB860605FA06F10843BE
:10031000E062F0BD816841F008018160704721B161
:10032000826842F4A002826003E0826822F4A002A4
:1003300082607047816841F004018160704700006D
:1003400030B10749096841F40001054A116005E030
:100350000349096821F40001014A11607047000057
:100360000824014010B50121480200F009FA0121DA
:10037000084600F0F5F910BD10B5FFF7F3FF00F0E7
:1003800001F810BD00B591B0354800F07DF80020AF
:1003900008900120099000201090324807904FF4F7
:1003A00080600D9000200B9020200E902E4806902B
:1003B00080150C9000200A904FF400500F9006A971
:1003C000274800F007F90121254800F051F80120E5
:1003D0008DF80900002004904FF460200390002065
:1003E000019001208DF814008DF8080001A91E4825
:1003F0004C38FFF70BFF4FF4404000F0A5F90723FE
:100400000122102118484C38FFF728FF0120FFF780
:1004100097FF012114484C38FFF7D9FE01211248FB
:100420004C38FFF7C9FE10484C38FFF773FF00BF88
:100430000D484C38FFF7E0FE0028F9D10A484C3847
:10044000FFF778FF00BF08484C38FFF7CBFE0028C5
:10045000F9D1012104484C38FFF761FF11B000BD0C
:1004600008000240020000204C24014000BFFEE7CB
:1004700021B1026842F00102026004E002684FF616
:10048000FE731A400260704701684FF6FE72114019
:1004900001600021016041608160C1604B49884278
:1004A00008D14A490839496841F00F01474A083ADA
:1004B00051608AE045491431884208D143490839DE
:1004C000496841F0F001414A083A51607DE03F49F6
:1004D0002831884208D13D490839496841F47061A2
:1004E0003A4A083A516070E038493C31884208D1B4
:1004F00036490839496841F47041344A083A516034
:1005000063E032495031884208D13049083949689E
:1005100041F470212D4A083A516056E02B4964316C
:10052000884208D129490839496841F47001274AAD
:10053000083A516049E025497831884208D1234979
:100540000839496841F07061204A083A51603CE03E
:100550001F49884206D1011F096841F00F01021F9F
:10056000116032E01A491431884208D11849091F34
:10057000096841F0F001164A121F116025E0144984
:100580002831884208D11249091F096841F4706175
:100590000F4A121F116018E00D493C31884208D102
:1005A0000B49091F096841F47041094A121F116083
:1005B0000BE007495031884207D10549091F0968F6
:1005C00041F47021024A121F116070470800024076
:1005D0000804024010B50022026847F6F0739A43FF
:1005E0000C6A8B6823430C6923434C6923438C6951
:1005F0002343CC6923434C6A23438C6A23431A4325
:100600000260CB6843600B6883604B68C36010BDB9
:10061000704701B502E00098401E00900098002845
:10062000F9D108BD2DE9F041024600250026002041
:1006300000230024002791F803C00CF00F0591F867
:1006400003C00CF0100CBCF1000F03D091F802C0F5
:100650004CEA050591F800C0BCF1000F31D01468D8
:1006600000202BE04FF0010C0CFA00F3B1F800C0B1
:100670000CEA03069E4220D183004FF00F0C0CFAC7
:1006800003F7BC4305FA03FC4CEA040491F803C0E9
:10069000BCF1280F06D14FF0010C0CFA00FCC2F897
:1006A00014C00AE091F803C0BCF1480F05D14FF027
:1006B000010C0CFA00FCC2F810C0401C0828D1D371
:1006C0001460B1F800C0BCF1FF0F34DD54680020A5
:1006D0002EE000F1080C4FF0010808FA0CF3B1F815
:1006E00000C00CEA03069E4221D183004FF00F0C9C
:1006F0000CFA03F7BC4305FA03FC4CEA040491F836
:1007000003C0BCF1280F05D100F1080C08FA0CF861
:10071000C2F8148091F803C0BCF1480F07D100F172
:10072000080C4FF0010808FA0CF8C2F81080401CC1
:100730000828CED35460BDE8F08100BFFEE700BFBB
:10074000FEE770477047000001460020034A5068EA
:1007500020F4404008435060704700000010024001
:1007600029B1064A52690243044B5A6104E0034A24
:1007700052698243014B5A617047000000100240E9
:1007800029B1064A92690243044B9A6104E0034A84
:1007900092698243014B9A61704700000010024049
:1007A00030B500210022002400232D4D6D6805F096
:1007B0000C0121B1042905D0082923D105E0294DD8
:1007C000056022E0274D05601FE0254D6D6805F4AA
:1007D0007012234D6D6805F48034022505EB9242BA
:1007E0001CB9214D554305600BE01D4D6D6805F4A6
:1007F00000351DB11C4D5543056002E0194D5543B0
:10080000056002E0174D056000BF00BF144D6D6824
:1008100005F0F0010909154D6B5C0568DD40456088
:100820000F4D6D6805F4E061090A104D6B5C456879
:10083000DD4085600A4D6D6805F46051C90A0B4DB5
:100840006B5C4568DD40C560054D6D6805F4404151
:10085000890B074D6B5CC568B5FBF3F5056130BDD1
:100860000010024000127A0000093D000400002040
:1008700014000020704710B500F002F810BD000011
:100880000CB50020019000903348006840F480309F
:100890003149086000BF3048006800F40030009023
:1008A0000198401C0190009818B90198B0F5A06F0C
:1008B000F1D12948006800F4003010B10120009007
:1008C00001E0002000900098012843D123480068EF
:1008D00040F01000214908600846006820F003003D
:1008E00008600846006840F0020008601A48406846
:1008F000194948600846406848600846406840F426
:10090000806048600846406820F47C1048600846D3
:10091000406840F4E81048600846006840F0807085
:10092000086000BF0C48006800F000700028F9D093
:100930000948406820F003000749486008464068BD
:1009400040F00200486000BF0348406800F00C001F
:100950000828F9D10CBD0000001002400020024020
:100960007047000010B51348006840F001001149BD
:10097000086008464068104908400E49486008462B
:1009800000680E4908400B4908600846006820F4DA
:10099000802008600846406820F4FE0048604FF45C
:1009A0001F008860FFF767FF4FF000600449086090
:1009B00010BD0000001002400000FFF8FFFFF6FE2F
:1009C00008ED00E021B1828942F40052828104E006
:1009D00082894DF6FF731A408281704700B585B059
:1009E00001210420FFF7CCFE01218803FFF7C8FE98
:1009F0004FF40070ADF8100018208DF8130003209C
:100A00008DF8120004A91348FFF70CFE4FF4806024
:100A1000ADF8100004208DF8130004A90D48FFF76D
:100A200001FE4FF4E13000900020ADF80400ADF875
:100A30000600ADF80800ADF80C000C20ADF80A0077
:100A40006946054800F018F801210348FFF7BAFF8E
:100A500005B000BD000801400038014002460020FA
:100A6000B1F5007F00D100BF13880B400BB101200E
:100A700000E00020704700002DE9F04786B00546F1
:100A80000E460024A24600BFA1460027B08900B14F
:100A900000BF2F462C8A4CF6FF700440F0880443B8
:100AA0002C82AC894EF6F3100440B088318908439B
:100AB000718908430443AC81AC8A4FF6FF4004407F
:100AC000B0890443AC8201A8FFF76AFE1F48874241
:100AD00002D1DDF810A001E0DDF80CA0A88900F437
:100AE000004040B10AEBCA0000EB0A10316849002F
:100AF000B0FBF1F807E00AEBCA0000EB0A1031681E
:100B00008900B0FBF1F86420B8FBF0F00401200983
:100B1000642101FB1089A88900F4004040B1322013
:100B200000EBC900B0FBF1F000F00700044308E05F
:100B3000322000EB09106421B0FBF1F000F00F004F
:100B400004432C8106B0BDE8F08700000038014066
:100B5000C1F308028280704700BFFEE70FB4054B67
:100B600010B503A9044A029800F018F810BC5DF80B
:100B700014FB0000E10E00081800002002E008C885
:100B8000121F08C1002AFAD170477047002001E007
:100B900001C1121F002AFBD1704700002DE9FF4F51
:100BA0008BB088460546002606E025280BD0DDE9F7
:100BB0000D1290476D1C761C28780028F5D10FB0D7
:100BC0003046BDE8F08F0024A146A2460122AE497E
:100BD00000E0044315F8013F203B02FA03F008420D
:100BE000F7D128782A2810D06FF02F022878A0F1AA
:100BF0003001092915D809EB890102EB410144F0C4
:100C0000020400EB01096D1CF0E758F8041B5FEAD1
:100C1000010903D544F40054C9F1000944F0020469
:100C20006D1C28782E2817D115F8010F44F0040404
:100C30002A280ED06FF02F022878A0F13001092960
:100C40000AD80AEB8A0102EB410100EB010A6D1C94
:100C5000F2E758F804AB6D1C28786C280FD006DC3E
:100C60004C2817D068280DD06A2814D104E07428C5
:100C700010D07A280FD10DE044F400140AE044F4B7
:100C8000801401E044F440146978814202D104F5F3
:100C900080146D1C6D1C2878692865D006DC00283E
:100CA0008DD0632827D0642806D15DE06E2808D057
:100CB00073282AD0752877D0DDE90D129047761C6D
:100CC000E0E0C4F30250022809D003280DD0D8F880
:100CD000001004280DD00E6008F10408D2E0D8F806
:100CE0000010F217C1E90062F6E7D8F800100E8094
:100CF000F2E70E70F0E718F8041B8DF800100020E2
:100D00008DF80100EB46012003E058F804BB4FF0DA
:100D1000FF3061074FF0000701D40AE07F1C574500
:100D20000DDA8742FADB1BF807100029F6D106E03E
:100D30007F1C8742FCDB1BF807100029F8D1DDE996
:100D40000D23A9EB07008146214600F0B1F830449D
:100D5000C61904E0DDE90D121BF8010B90477F1E58
:100D6000F8D22146484688E058F8040BC4F30251F3
:100D70004FF00A0B032900D100B2042900D140B280
:100D8000002802DA40422D2102E0210505D52B2161
:100D90008DF82410012104E006E0E10710D02021A5
:100DA000F6E708AF089113E058F8040BC4F30251BA
:100DB0004FF00A0B032900D180B2042900D1C0B240
:100DC0000021EEE75946FFF7CFF9303107F8011D52
:100DD0000028F7D1ADEB070000F1200B600702D52A
:100DE00024F4803401E04FF0010ADA4502DDAAEB79
:100DF0000B0000E00020824600EB0B010898014444
:100E0000A9EB01000A90E00306D4DDE90D23214699
:100E10000A9800F04DF806444FF0000908E009A9CF
:100E200011F80900DDE90D12904709F10109761C5E
:100E300008998945F3DBE0030CD5DDE90D23214654
:100E40000A9800F035F8064404E0DDE90D12302080
:100E50009047761CBAF10001AAF1010AF5DC05E021
:100E6000DDE90D1217F8010B9047761CBBF100016C
:100E7000ABF1010BF4DC0A982146DDE90D2300F00B
:100E800005F806446D1C97E6092801002DE9F0419C
:100E9000044600251E461746880404D405E039465A
:100EA0002020B0476D1C641EF9D52846BDE8F081AE
:100EB0002DE9F041044600251E469046C80301D5A1
:100EC000302700E02027880404D505E04146384655
:100ED000B0476D1C641EF9D52846BDE8F0810000BE
:100EE00070B504460D46E1B20548FFF731FE00BF7C
:100EF00080210348FFF7B2FD0028F9D070BD000043
:100F000000380140FFF76AFDFFF736FA0BA0FFF744
:100F100025FE12E01848FFF77CFB1848008840F2D5
:100F2000EE61081A052190FBF1F019301449088090
:100F30000846018813A0FFF711FEEBE72D2D2D2D9C
:100F40002D2D2D2D2D2D2D2D2D2DD5E2CAC7D2BB0A
:100F5000B8F6C4DAB2BFCEC2B6C8B4ABB8D0C6F722
:100F6000CAB5D1E92D2D2D2D2D2D2D2D2D2D2D2D2C
:100F70002D2D2D2D2D000000EEFFFF000200002082
:100F8000000000200D0A20546865206375727265A8
:100F90006E742041442074656D203D20253364200B
:100FA000A1E60D0A00000000C80F000800000020A4
:100FB0001C0000007C0B0008E40F00081C0000204F
:100FC000040400008C0B000800000000000000007A
:100FD00001020304010203040607080902040608CB
:040FE000000000000D
:0400000508000131BD
:00000001FF
